:1000000000400020AB060000410700004707000049
:1000100000000000000000000000000000000000E0
:100020000000000000000000000000004107000088
:100030000000000000000000410700004107000030
:100040004107000041070000410700004107000090
:100050004107000041070000410700004107000080
:100060004107000041070000410700004107000070
:100070004107000041070000410700004107000060
:100080004107000041070000410700000D02000089
:100090004107000041070000410700004107000040
:1000A0004107000041070000410700004107000030
:1000B0000000000000000000000000000000000040
:1000C00080B500AF002000F0A9F93A4B10221A6069
:1000D000394BC022D2011A6000F0DCF8374B802285
:1000E000D2051A60364B012252421A60354B8022EB
:1000F00012031A60344B1A68334B04218A431A6086
:10010000324B00221A60324B00221A60314B324AC5
:100110001A60324A314B12681A60314B1A68304B00
:1001200001210A431A602F4B1A682E4B01210A4302
:100130001A60254B1A68244B04210A431A602A4B83
:100140008022D2041A6000F02BFA00F0D5F8274A7A
:10015000264B12681A60184B1A68174B06210A437F
:100160001A60144B1A68134B01210A431A60204B82
:100170001A681F4B1F490A431A601F4B1A681E4B0F
:1001800002210A431A601D4A1C4B12681A601C4B5C
:100190001A681B4B0A210A431A601A4B1A68194B3A
:1001A00001210A431A60184B1A68174B01210A43B0
:1001B0001A60FEE7000104400801044010E400E07A
:1001C00080E200E000E100E00000204088012040E3
:1001D000A801204094012040B70B0000800120407E
:1001E000B8012040B001204008002040080204402F
:1001F00000003A40E00E00C000033A4004003A40DC
:1002000010003A4080003A4020003A4080B500AFEC
:10021000194B1A68184B01210A431A60174B1A68C8
:10022000164B01210A431A60C046154B1B68012278
:100230001340012BF9D1124B01221A60114B1B689C
:100240009BB21B051B0D9AB20F4B1A800E4B1B88DD
:100250009BB20E4A934206D90D4B1A680C4B0121F2
:100260008A431A6005E00A4B1A68094B01210A43C8
:100270001A60C046BD4680BDB001204024003A400F
:1002800010023A4080013A4000000020DC050000E6
:100290000001044080B500AF0D4B0E4A1A600E4BB2
:1002A000802252001A600A4B0C4A1A600C4B412201
:1002B0001A60074B0B4A1A600B4B0C4A1A60044B2E
:1002C0000B4A1A600B4B43221A60C046BD4680BDE4
:1002D00000000140410000400403014041FF008054
:1002E00048010140430000400C03014000BF5D0095
:1002F00043FF00802001014080B500AF044B002285
:100300001A60044B00221A60C046BD4680BDC0463C
:10031000080F03402800034080B582B000AF020000
:100320003960FB1D1A70FB1D1B789B01FF221A40D0
:100330003B683F210B401A43044B8021C9050A4307
:100340001A60C046BD4602B080BDC04600000140F4
:1003500080B584B000AFB9607A600F217B18021CB1
:100360001A707B187A1812781A700A4ABB68C03360
:100370009B009B58084A1A407B681B0207490B40A8
:1003800004491A43BB68C0339B005A50C046BD465F
:1003900004B080BD00000140FF0000FF00FFFF002F
:1003A00080B582B000AF02003960FB1D1A70FB1DE2
:1003B0001B789B01FF221A403B683F210B401A43E8
:1003C000044B05490A431A60024B1B68C046BD46F0
:1003D00002B080BD0000014000FF008080B582B007
:1003E00000AF3A60FB1D021C1A70BB1D0A1C1A707C
:1003F000BB1D1B789B01FF22134019003B683F2265
:100400001A400548FB1D1B780A4340339B001A50D5
:10041000C046BD4602B080BD0000014080B582B03C
:1004200000AF0200FB1D1A70084B9B6A0C2293431D
:100430001900FB1D1B789B000C221A40034B0A433A
:100440009A62C046BD4602B080BDC046000003406F
:1004500080B500AF034B802212061A63C046BD462A
:1004600080BDC0460000034080B500AF0A4A0B4B78
:10047000D3589B001C22134019000A005201521A43
:1004800093019B1ADB005B189B01054A9446634469
:100490001800BD4680BDC04600000340080F0000A4
:1004A00000366E0180B586B000AF7860FFF7DCFFE4
:1004B00002007B6893425FD07B68314A9446634474
:1004C0003049180000F042F90300FB602E4A2F4B20
:1004D0000021D1502E49E623FF33FA688A18D31839
:1004E0001B78DBB2284A19002A4BD150264AF12347
:1004F0001B010021D1502649E6235B00FA688A18C7
:10050000D3181B78DBB2204A1900234BD150FB686B
:100510009B08FB6000237B6102E07B6901337B6108
:100520007B691E4A9342F8DDFB68002B24D0164AF3
:10053000164BD358072293431A00FB68013B07214F
:100540000B4011491343114A8B5000233B6102E0D9
:100550003B6901333B613B69104A9342F8DD0A4A2B
:100560000A4BD358072293431A00FB6807210B401C
:1005700005491343054A8B50C046BD4606B080BDB1
:1005800000CA91FE40420F0000000340080F000027
:1005900000F0FF0F0C0F0000180F00004FC3000009
:1005A00080B500AF62B6C046BD4680BD80B500AF25
:1005B00072B6C046BD4680BD80B582B000AF7860DF
:1005C00039607B68002B1FDB114A7B689B08C033B6
:1005D0009B009B587A6803210A40D200FF2191407A
:1005E0000A00D2431A4011003B689B01FF221A40C7
:1005F0007B6803200340DB009A4005487B689B082A
:100600000A43C0339B001A50C046BD4602B080BDAD
:1006100000E100E080B582B000AF78607B68002B1D
:1006200008DB7B681F221340044901229A40C02343
:100630005B00CA50C046BD4602B080BD00E100E08C
:1006400080B582B000AF78607B68002B07DB7B68E9
:100650001F221A40044B012191400A001A60C04633
:10066000BD4602B080BDC04600E100E080B582B06A
:1006700000AF78607B68002B0CDB7B681F22134087
:10068000064901229A40130080228B50BFF34F8FFE
:10069000BFF36F8FC046BD4602B080BD00E100E0F1
:1006A00080B500AFC046BD4680BD80B586B000AF06
:1006B0001C4B1D4A1A601D4A1D4BD31A9B107B60B0
:1006C0001B4B7B611B4B3B610023FB600AE03A69DB
:1006D000131D3B617B69191D796112681A60FB6803
:1006E0000133FB60FA687B689A42F0D3124A134BDD
:1006F000D31A9B107B60114B7B610023BB6007E02A
:100700007B691A1D7A6100221A60BB680133BB60E5
:10071000BA687B689A42F3D300F0A4F8FFF7D0FCE4
:10072000FEE7C046380003406588EDAC00000020BD
:1007300000000020AC0800000400002000000020A1
:1007400080B500AFFEE780B500AFFEE700224308AA
:100750008B4274D303098B425FD3030A8B4244D389
:10076000030B8B4228D3030C8B420DD3FF220902CB
:1007700012BA030C8B4202D31212090265D0030B8A
:100780008B4219D300E0090AC30B8B4201D3CB0380
:10079000C01A5241830B8B4201D38B03C01A5241C2
:1007A000430B8B4201D34B03C01A5241030B8B42C4
:1007B00001D30B03C01A5241C30A8B4201D3CB02AF
:1007C000C01A5241830A8B4201D38B02C01A524194
:1007D000430A8B4201D34B02C01A5241030A8B4297
:1007E00001D30B02C01A5241CDD2C3098B4201D3AF
:1007F000CB01C01A524183098B4201D38B01C01A2D
:10080000524143098B4201D34B01C01A52410309A3
:100810008B4201D30B01C01A5241C3088B4201D352
:10082000CB00C01A524183088B4201D38B00C01AFF
:10083000524143088B4201D34B00C01A5241411A26
:1008400000D20146524110467047FFE701B5002033
:1008500000F006F802BDC0460029F7D076E77047E1
:100860007047C04670B500260C4D0D4C641BA4109B
:10087000A64209D10026FFF713FF0A4D0A4C641B5C
:10088000A410A64205D170BDB300EB5898470136BD
:10089000EEE7B300EB5898470136F2E7000000009E
:0C08A0000000000000000000000000004C
:04000003000006AB48
:00000001FF
