:10000000003000202B030000C1030000C7030000E4
:1000100000000000000000000000000000000000E0
:10002000000000000000000000000000C10300000C
:100030000000000000000000C1030000C103000038
:10004000C1030000C1030000C1030000C90100009A
:10005000C1030000C1030000C1030000C103000090
:10006000C1030000C1030000C1030000C103000080
:10007000C1030000C1030000C1030000C103000070
:10008000C1030000C1030000C1030000C103000060
:10009000C1030000C1030000C1030000C103000050
:1000A000C1030000C1030000C1030000C103000040
:1000B0000000000000000000000000000000000040
:1000C00080B582B000AF00F0ABF8364B1A68354B04
:1000D00006210A431A60334B1A68324BC02149008B
:1000E0000A431A602F4B1A682E4BC021C9010A43DC
:1000F0001A602D4B1A682C4B8021C9030A431A60E1
:10010000294B1A68284B80210A431A60274B1A682A
:10011000264B80210A431A60244B1A68234B042182
:100120000A431A60224B1A68214B802109020A43B4
:100130001A601F4B1A681E4B20210A431A601D4B80
:100140001A681C4BC02109060A431A601A4B1A6828
:10015000194B08210A431A60184B012252421A60B7
:10016000174B1A68164B04210A431A6000237B6060
:1001700002E07B6801337B607B68124A9342F8DDC2
:100180000F4B1A680E4B04218A431A6000233B6010
:1001900002E03B6801333B603B680A4A9342F8DD6A
:1001A000DEE7C046080104400803044000030440A1
:1001B0000C03044000E400E000E100E080E200E025
:1001C000000104409F86010080B500AF124B1B6800
:1001D000802213400BD0114B1A68104B01214A406A
:1001E0001A600D4B1A680C4B80210A431A600A4BA7
:1001F0001B68042213400BD0084B1A68074B1021D0
:100200004A401A60044B1A68034B04210A431A60DF
:10021000C046BD4680BDC0461003044000010440F6
:1002200080B500AF62B6C046BD4680BD80B500AFA8
:1002300072B6C046BD4680BD80B582B000AF786062
:1002400039607B68002B1FDB114A7B689B08C03339
:100250009B009B587A6803210A40D200FF219140FD
:100260000A00D2431A4011003B689B01FF221A404A
:100270007B6803200340DB009A4005487B689B08AD
:100280000A43C0339B001A50C046BD4602B080BD31
:1002900000E100E080B582B000AF78607B68002BA1
:1002A00008DB7B681F221340044901229A40C023C7
:1002B0005B00CA50C046BD4602B080BD00E100E010
:1002C00080B582B000AF78607B68002B07DB7B686D
:1002D0001F221A40044B012191400A001A60C046B7
:1002E000BD4602B080BDC04600E100E080B582B0EE
:1002F00000AF78607B68002B0CDB7B681F2213400B
:10030000064901229A40130080228B50BFF34F8F81
:10031000BFF36F8FC046BD4602B080BD00E100E074
:1003200080B500AFC046BD4680BD80B586B000AF89
:100330001C4B1D4A1A601D4A1D4BD31A9B107B6033
:100340001B4B7B611B4B3B610023FB600AE03A695E
:10035000131D3B617B69191D796112681A60FB6886
:100360000133FB60FA687B689A42F0D3124A134B60
:10037000D31A9B107B60114B7B610023BB6007E0AD
:100380007B691A1D7A6100221A60BB680133BB6069
:10039000BA687B689A42F3D300F018F8FFF790FE32
:1003A000FEE7C046380003406588EDAC0000002041
:1003B00000000020140400000000002000000020C5
:1003C00080B500AFFEE780B500AFFEE770B5002650
:1003D0000C4D0D4C641BA410A64209D10026FFF75A
:1003E0009FFF0A4D0A4C641BA410A64205D170BDA4
:1003F000B300EB5898470136EEE7B300EB58984747
:100400000136F2E7000000000000000000000000DC
:0404100000000000E8
:040000030000032BCB
:00000001FF
