:1000000000300020E3000000790100007F010000C3
:1000100000000000000000000000000000000000E0
:100020000000000000000000000000007901000056
:1000300000000000000000007901000079010000CC
:1000400079010000790100007901000079010000C8
:1000500079010000790100007901000079010000B8
:1000600079010000790100007901000079010000A8
:100070007901000079010000790100007901000098
:100080007901000079010000790100007901000088
:100090007901000079010000790100007901000078
:1000A0007901000079010000790100007901000068
:1000B0000000000000000000000000000000000040
:1000C00080B500AF034B1A68024BFF210A431A6048
:1000D000FEE7C0460001044080B500AFC046BD4603
:1000E00080BD80B586B000AF1C4B1D4A1A601D4A0A
:1000F0001D4BD31A9B107B601B4B7B611B4B3B61E1
:100100000023FB600AE03A69131D3B617B69191DFE
:10011000796112681A60FB680133FB60FA687B68DA
:100120009A42F0D3124A134BD31A9B107B60114BA7
:100130007B610023BB6007E07B691A1D7A610022A6
:100140001A60BB680133BB60BA687B689A42F3D31C
:1001500000F018F8FFF7B4FFFEE7C0463800034090
:100160006588EDAC0000002000000020CC010000FC
:10017000000000200000002080B500AFFEE780B541
:1001800000AFFEE770B500260C4D0D4C641BA410AB
:10019000A64209D10026FFF79FFF0A4D0A4C641BB7
:1001A000A410A64205D170BDB300EB5898470136A4
:1001B000EEE7B300EB5898470136F2E70000000085
:0C01C00000000000000000000000000033
:04000003000000E316
:00000001FF
