:100000000040002073030000090400000F040000FA
:1000100000000000000000000000000000000000E0
:1000200000000000000000000000000009040000C3
:1000300000000000000000000904000009040000A6
:10004000090400000904000009040000090400007C
:10005000090400000904000009040000090400006C
:10006000090400000904000009040000090400005C
:10007000090400000904000009040000090400004C
:10008000090400000904000009040000090400003C
:10009000090400000904000009040000090400002C
:1000A000090400000904000009040000090400001C
:1000B0000000000000000000000000000000000040
:1000C00080B500AF00F0C0F8314B1A68304B3821D2
:1000D0008A431A602F4B04221A602D4B1A682C4B4E
:1000E000C02149000A431A602B4B1A682A4B2B493E
:1000F0000A401A6000F089F8294B1A68284B2949F0
:100100000A431A60284B02221A60284A274B1268B9
:100110001A60274B1A68264B0A210A431A60254B9E
:1001200001221A60244B01221A6000F09DF8234B33
:1001300001221A60C046224B1B6801221340FAD0EC
:100140001F4B1A681E4B01210A431A601D4B1B6886
:100150009BB21B051B0D9AB21B4B1A801A4B1B88B6
:100160009AB280231B019A4206D90A4B1A68094B9E
:1001700004218A431A6005E0064B1A68054B0421E6
:100180000A431A60114B180000F022F8CFE7C0466E
:10019000080204400002044000020240FFF0FFFF9A
:1001A00000003A40E00E00C000033A4004003A402C
:1001B00010003A4080003A4020003A4024003A4083
:1001C00010023A4080013A400000002088130000ED
:1001D00080B584B000AF78600023FB6002E0FB686C
:1001E0000133FB60FA687B689A42F8DB0023BB604E
:1001F00002E0BB680133BB60BA687B689A42F8DBF7
:10020000C046C046BD4604B080BD80B500AF094BB6
:10021000094A1A60094B802252001A60054B1A687D
:10022000044B07490A431A60064B41221A60C04634
:10023000BD4680BD00000140410000400403014074
:1002400041FF00804801014080B500AF044B00220F
:100250001A60044B00221A60C046BD4680BDC046ED
:10026000080F03402800034080B500AF62B6C046C7
:10027000BD4680BD80B500AF72B6C046BD4680BDEC
:1002800080B582B000AF786039607B68002B1FDBDF
:10029000114A7B689B08C0339B009B587A680321F6
:1002A0000A40D200FF2191400A00D2431A401100B7
:1002B0003B689B01FF221A407B6803200340DB0060
:1002C0009A4005487B689B080A43C0339B001A503C
:1002D000C046BD4602B080BD00E100E080B582B0FE
:1002E00000AF78607B68002B08DB7B681F2213401F
:1002F000044901229A40C0235B00CA50C046BD4653
:1003000002B080BD00E100E080B582B000AF78604F
:100310007B68002B07DB7B681F221A40044B0121FE
:1003200091400A001A60C046BD4602B080BDC0467A
:1003300000E100E080B582B000AF78607B68002B00
:100340000CDB7B681F221340064901229A401300F0
:1003500080228B50BFF34F8FBFF36F8FC046BD46D7
:1003600002B080BD00E100E080B500AFC046BD46F0
:1003700080BD80B586B000AF1C4B1D4A1A601D4A77
:100380001D4BD31A9B107B601B4B7B611B4B3B614E
:100390000023FB600AE03A69131D3B617B69191D6C
:1003A000796112681A60FB680133FB60FA687B6848
:1003B0009A42F0D3124A134BD31A9B107B60114B15
:1003C0007B610023BB6007E07B691A1D7A61002214
:1003D0001A60BB680133BB60BA687B689A42F3D38A
:1003E00000F018F8FFF76CFEFEE7C0463800034047
:1003F0006588EDAC00000020000000205C040000D7
:10040000180000200000002080B500AFFEE780B596
:1004100000AFFEE770B500260C4D0D4C641BA41018
:10042000A64209D10026FFF79FFF0A4D0A4C641B24
:10043000A410A64205D170BDB300EB589847013611
:10044000EEE7B300EB5898470136F2E700000000F2
:0C045000000000000000000000000000A0
:040000030000037383
:00000001FF
